{
  "_format": "hh-sol-artifact-1",
  "contractName": "LoanStateMachine",
  "sourceName": "contracts/LoanStateMachine.sol",
  "abi": [
    {
      "inputs": [
        {
          "internalType": "uint256",
          "name": "_amount",
          "type": "uint256"
        },
        {
          "internalType": "uint256",
          "name": "_interest",
          "type": "uint256"
        },
        {
          "internalType": "uint256",
          "name": "_duration",
          "type": "uint256"
        },
        {
          "internalType": "address payable",
          "name": "_borrower",
          "type": "address"
        },
        {
          "internalType": "address payable",
          "name": "_lender",
          "type": "address"
        }
      ],
      "stateMutability": "nonpayable",
      "type": "constructor"
    },
    {
      "inputs": [],
      "name": "amount",
      "outputs": [
        {
          "internalType": "uint256",
          "name": "",
          "type": "uint256"
        }
      ],
      "stateMutability": "view",
      "type": "function"
    },
    {
      "inputs": [],
      "name": "borrower",
      "outputs": [
        {
          "internalType": "address payable",
          "name": "",
          "type": "address"
        }
      ],
      "stateMutability": "view",
      "type": "function"
    },
    {
      "inputs": [],
      "name": "duration",
      "outputs": [
        {
          "internalType": "uint256",
          "name": "",
          "type": "uint256"
        }
      ],
      "stateMutability": "view",
      "type": "function"
    },
    {
      "inputs": [],
      "name": "end",
      "outputs": [
        {
          "internalType": "uint256",
          "name": "",
          "type": "uint256"
        }
      ],
      "stateMutability": "view",
      "type": "function"
    },
    {
      "inputs": [],
      "name": "fund",
      "outputs": [],
      "stateMutability": "payable",
      "type": "function"
    },
    {
      "inputs": [],
      "name": "interest",
      "outputs": [
        {
          "internalType": "uint256",
          "name": "",
          "type": "uint256"
        }
      ],
      "stateMutability": "view",
      "type": "function"
    },
    {
      "inputs": [],
      "name": "lender",
      "outputs": [
        {
          "internalType": "address payable",
          "name": "",
          "type": "address"
        }
      ],
      "stateMutability": "view",
      "type": "function"
    },
    {
      "inputs": [],
      "name": "reimburse",
      "outputs": [],
      "stateMutability": "payable",
      "type": "function"
    },
    {
      "inputs": [],
      "name": "state",
      "outputs": [
        {
          "internalType": "enum LoanStateMachine.State",
          "name": "",
          "type": "uint8"
        }
      ],
      "stateMutability": "view",
      "type": "function"
    }
  ],
  "bytecode": "0x608060405260008060006101000a81548160ff021916908360028111156200002c576200002b6200031a565b5b02179055503480156200003e57600080fd5b506040516200119d3803806200119d833981810160405281019062000064919062000167565b84600181905550836002819055506103e883620151806200008691906200024c565b42620000939190620001ef565b6200009f91906200024c565b6003819055508260048190555081600560006101000a81548173ffffffffffffffffffffffffffffffffffffffff021916908373ffffffffffffffffffffffffffffffffffffffff16021790555080600660006101000a81548173ffffffffffffffffffffffffffffffffffffffff021916908373ffffffffffffffffffffffffffffffffffffffff160217905550505050505062000382565b6000815190506200014a816200034e565b92915050565b600081519050620001618162000368565b92915050565b600080600080600060a0868803121562000186576200018562000349565b5b6000620001968882890162000150565b9550506020620001a98882890162000150565b9450506040620001bc8882890162000150565b9350506060620001cf8882890162000139565b9250506080620001e28882890162000139565b9150509295509295909350565b6000620001fc82620002e1565b91506200020983620002e1565b9250827fffffffffffffffffffffffffffffffffffffffffffffffffffffffffffffffff03821115620002415762000240620002eb565b5b828201905092915050565b60006200025982620002e1565b91506200026683620002e1565b9250817fffffffffffffffffffffffffffffffffffffffffffffffffffffffffffffffff0483118215151615620002a257620002a1620002eb565b5b828202905092915050565b6000620002ba82620002c1565b9050919050565b600073ffffffffffffffffffffffffffffffffffffffff82169050919050565b6000819050919050565b7f4e487b7100000000000000000000000000000000000000000000000000000000600052601160045260246000fd5b7f4e487b7100000000000000000000000000000000000000000000000000000000600052602160045260246000fd5b600080fd5b6200035981620002ad565b81146200036557600080fd5b50565b6200037381620002e1565b81146200037f57600080fd5b50565b610e0b80620003926000396000f3fe6080604052600436106100865760003560e01c8063bcead63e11610059578063bcead63e14610116578063c19d93fb14610141578063c392f7661461016c578063d3927c1514610197578063efbe1c1c146101a157610086565b80630fb5a6b41461008b5780637df1f1b9146100b6578063aa8c217c146100e1578063b60d42881461010c575b600080fd5b34801561009757600080fd5b506100a06101cc565b6040516100ad9190610a77565b60405180910390f35b3480156100c257600080fd5b506100cb6101d2565b6040516100d89190610921565b60405180910390f35b3480156100ed57600080fd5b506100f66101f8565b6040516101039190610a77565b60405180910390f35b6101146101fe565b005b34801561012257600080fd5b5061012b610349565b6040516101389190610921565b60405180910390f35b34801561014d57600080fd5b5061015661036f565b604051610163919061093c565b60405180910390f35b34801561017857600080fd5b50610181610380565b60405161018e9190610a77565b60405180910390f35b61019f610386565b005b3480156101ad57600080fd5b506101b66104eb565b6040516101c39190610a77565b60405180910390f35b60045481565b600560009054906101000a900473ffffffffffffffffffffffffffffffffffffffff1681565b60015481565b600660009054906101000a900473ffffffffffffffffffffffffffffffffffffffff1673ffffffffffffffffffffffffffffffffffffffff163373ffffffffffffffffffffffffffffffffffffffff161461028e576040517f08c379a0000000000000000000000000000000000000000000000000000000008152600401610285906109b7565b60405180910390fd5b60015447146102d2576040517f08c379a00000000000000000000000000000000000000000000000000000000081526004016102c9906109f7565b60405180910390fd5b6102dc60016104f1565b600560009054906101000a900473ffffffffffffffffffffffffffffffffffffffff1673ffffffffffffffffffffffffffffffffffffffff166108fc6001549081150290604051600060405180830381858888f19350505050158015610346573d6000803e3d6000fd5b50565b600660009054906101000a900473ffffffffffffffffffffffffffffffffffffffff1681565b60008054906101000a900460ff1681565b60025481565b600560009054906101000a900473ffffffffffffffffffffffffffffffffffffffff1673ffffffffffffffffffffffffffffffffffffffff163373ffffffffffffffffffffffffffffffffffffffff1614610416576040517f08c379a000000000000000000000000000000000000000000000000000000000815260040161040d90610a37565b60405180910390fd5b6002546001546104269190610aa3565b3414610467576040517f08c379a000000000000000000000000000000000000000000000000000000000815260040161045e90610a57565b60405180910390fd5b61047160026104f1565b600660009054906101000a900473ffffffffffffffffffffffffffffffffffffffff1673ffffffffffffffffffffffffffffffffffffffff166108fc6002546001546104bd9190610aa3565b9081150290604051600060405180830381858888f193505050501580156104e8573d6000803e3d6000fd5b50565b60035481565b6000600281111561050557610504610b89565b5b81600281111561051857610517610b89565b5b1415610559576040517f08c379a000000000000000000000000000000000000000000000000000000000815260040161055090610a17565b60405180910390fd5b60008054906101000a900460ff16600281111561057957610578610b89565b5b81600281111561058c5761058b610b89565b5b14156105cd576040517f08c379a00000000000000000000000000000000000000000000000000000000081526004016105c490610957565b60405180910390fd5b600160028111156105e1576105e0610b89565b5b8160028111156105f4576105f3610b89565b5b1415610699576000600281111561060e5761060d610b89565b5b60008054906101000a900460ff16600281111561062e5761062d610b89565b5b1461066e576040517f08c379a0000000000000000000000000000000000000000000000000000000008152600401610665906109d7565b60405180910390fd5b60016000806101000a81548160ff0219169083600281111561069357610692610b89565b5b02179055505b6002808111156106ac576106ab610b89565b5b8160028111156106bf576106be610b89565b5b14156107b657600160028111156106d9576106d8610b89565b5b60008054906101000a900460ff1660028111156106f9576106f8610b89565b5b14610739576040517f08c379a000000000000000000000000000000000000000000000000000000000815260040161073090610997565b60405180910390fd5b6004546003546107499190610aa3565b42101561078b576040517f08c379a000000000000000000000000000000000000000000000000000000000815260040161078290610977565b60405180910390fd5b60026000806101000a81548160ff021916908360028111156107b0576107af610b89565b5b02179055505b50565b6107c281610af9565b82525050565b6107d181610b48565b82525050565b60006107e4602283610a92565b91506107ef82610bb8565b604082019050919050565b6000610807601883610a92565b915061081282610c07565b602082019050919050565b600061082a602983610a92565b915061083582610c30565b604082019050919050565b600061084d601483610a92565b915061085882610c7f565b602082019050919050565b6000610870602c83610a92565b915061087b82610ca8565b604082019050919050565b6000610893601e83610a92565b915061089e82610cf7565b602082019050919050565b60006108b6601f83610a92565b91506108c182610d20565b602082019050919050565b60006108d9601b83610a92565b91506108e482610d49565b602082019050919050565b60006108fc603483610a92565b915061090782610d72565b604082019050919050565b61091b81610b3e565b82525050565b600060208201905061093660008301846107b9565b92915050565b600060208201905061095160008301846107c8565b92915050565b60006020820190508181036000830152610970816107d7565b9050919050565b60006020820190508181036000830152610990816107fa565b9050919050565b600060208201905081810360008301526109b08161081d565b9050919050565b600060208201905081810360008301526109d081610840565b9050919050565b600060208201905081810360008301526109f081610863565b9050919050565b60006020820190508181036000830152610a1081610886565b9050919050565b60006020820190508181036000830152610a30816108a9565b9050919050565b60006020820190508181036000830152610a50816108cc565b9050919050565b60006020820190508181036000830152610a70816108ef565b9050919050565b6000602082019050610a8c6000830184610912565b92915050565b600082825260208201905092915050565b6000610aae82610b3e565b9150610ab983610b3e565b9250827fffffffffffffffffffffffffffffffffffffffffffffffffffffffffffffffff03821115610aee57610aed610b5a565b5b828201905092915050565b6000610b0482610b1e565b9050919050565b6000819050610b1982610dc1565b919050565b600073ffffffffffffffffffffffffffffffffffffffff82169050919050565b6000819050919050565b6000610b5382610b0b565b9050919050565b7f4e487b7100000000000000000000000000000000000000000000000000000000600052601160045260246000fd5b7f4e487b7100000000000000000000000000000000000000000000000000000000600052602160045260246000fd5b7f43616e6e6f74207472616e736974696f6e20646f2063757272656e742073746160008201527f7465000000000000000000000000000000000000000000000000000000000000602082015250565b7f4c6f616e20686173206e6f74206d617475726564207965740000000000000000600082015250565b7f43616e206f6e6c79207472616e736974696f6e20746f20636c6f73652020667260008201527f6f6d206163746976650000000000000000000000000000000000000000000000602082015250565b7f4f6e6c79206c656e6465722063616e206c656e64000000000000000000000000600082015250565b7f4f6e6c79207472616e736974696f6e20746f206163746976652066726f6d207060008201527f656e64696e672073746174650000000000000000000000000000000000000000602082015250565b7f43616e206f6e6c79206c656e642074686520657861637420616d6f756e740000600082015250565b7f43616e6e6f7420676f206261636b20746f2070656e64696e6720737461746500600082015250565b7f4f6e6c7920626f72726f7765722063616e207265696d62757273650000000000600082015250565b7f426f72726f776572206e65656420746f207265696d627572736520657861637460008201527f6c7920616d6f756e74202b20696e746572657374000000000000000000000000602082015250565b60038110610dd257610dd1610b89565b5b5056fea2646970667358221220687659d72e148c3a1f948aafdf3247952e0aabc5acf6f501d713e03651ce70bb64736f6c63430008070033",
  "linkReferences": {},
  "deployedLinkReferences": {}
}